{"contracts/AuditTrail.sol":{"AuditTrail":{"abi":[{"inputs":[{"internalType":"address","name":"initialOwner","type":"address"}],"stateMutability":"nonpayable","type":"constructor"},{"inputs":[{"internalType":"bytes32","name":"auditId","type":"bytes32"}],"name":"AuditAlreadyExists","type":"error"},{"inputs":[{"internalType":"bytes32","name":"auditId","type":"bytes32"}],"name":"AuditNotFound","type":"error"},{"inputs":[],"name":"InvalidZeroValue","type":"error"},{"inputs":[],"name":"NotBackendWriter","type":"error"},{"inputs":[],"name":"NotOwner","type":"error"},{"anonymous":false,"inputs":[{"indexed":true,"internalType":"bytes32","name":"auditId","type":"bytes32"},{"indexed":true,"internalType":"bytes32","name":"userId","type":"bytes32"},{"indexed":true,"internalType":"bytes32","name":"eventType","type":"bytes32"},{"indexed":false,"internalType":"enum AuditTrail.RiskLevel","name":"riskLevel","type":"uint8"},{"indexed":false,"internalType":"bytes32","name":"eventHash","type":"bytes32"},{"indexed":false,"internalType":"uint256","name":"timestamp","type":"uint256"},{"indexed":false,"internalType":"address","name":"writer","type":"address"}],"name":"AuditRecorded","type":"event"},{"anonymous":false,"inputs":[{"indexed":true,"internalType":"address","name":"writer","type":"address"},{"indexed":false,"internalType":"bool","name":"allowed","type":"bool"}],"name":"BackendWriterUpdated","type":"event"},{"anonymous":false,"inputs":[{"indexed":true,"internalType":"address","name":"previousOwner","type":"address"},{"indexed":true,"internalType":"address","name":"newOwner","type":"address"}],"name":"OwnershipTransferred","type":"event"},{"inputs":[],"name":"auditCount","outputs":[{"internalType":"uint256","name":"","type":"uint256"}],"stateMutability":"view","type":"function"},{"inputs":[{"internalType":"address","name":"","type":"address"}],"name":"backendWriters","outputs":[{"internalType":"bool","name":"","type":"bool"}],"stateMutability":"view","type":"function"},{"inputs":[{"internalType":"bytes32","name":"auditId","type":"bytes32"}],"name":"getAudit","outputs":[{"components":[{"internalType":"bytes32","name":"auditId","type":"bytes32"},{"internalType":"bytes32","name":"userId","type":"bytes32"},{"internalType":"bytes32","name":"eventType","type":"bytes32"},{"internalType":"enum AuditTrail.RiskLevel","name":"riskLevel","type":"uint8"},{"internalType":"bytes32","name":"eventHash","type":"bytes32"},{"internalType":"uint256","name":"timestamp","type":"uint256"},{"internalType":"address","name":"writer","type":"address"},{"internalType":"bool","name":"exists","type":"bool"}],"internalType":"struct AuditTrail.AuditRecord","name":"","type":"tuple"}],"stateMutability":"view","type":"function"},{"inputs":[{"internalType":"uint256","name":"index","type":"uint256"}],"name":"getAuditIdAt","outputs":[{"internalType":"bytes32","name":"","type":"bytes32"}],"stateMutability":"view","type":"function"},{"inputs":[],"name":"owner","outputs":[{"internalType":"address","name":"","type":"address"}],"stateMutability":"view","type":"function"},{"inputs":[{"internalType":"bytes32","name":"auditId","type":"bytes32"},{"internalType":"bytes32","name":"userId","type":"bytes32"},{"internalType":"bytes32","name":"eventType","type":"bytes32"},{"internalType":"enum AuditTrail.RiskLevel","name":"riskLevel","type":"uint8"},{"internalType":"bytes32","name":"eventHash","type":"bytes32"}],"name":"recordAudit","outputs":[],"stateMutability":"nonpayable","type":"function"},{"inputs":[{"internalType":"address","name":"writer","type":"address"},{"internalType":"bool","name":"allowed","type":"bool"}],"name":"setBackendWriter","outputs":[],"stateMutability":"nonpayable","type":"function"},{"inputs":[{"internalType":"address","name":"newOwner","type":"address"}],"name":"transferOwnership","outputs":[],"stateMutability":"nonpayable","type":"function"},{"inputs":[{"internalType":"bytes32","name":"auditId","type":"bytes32"},{"internalType":"bytes32","name":"expectedEventHash","type":"bytes32"}],"name":"verifyAudit","outputs":[{"internalType":"bool","name":"","type":"bool"}],"stateMutability":"view","type":"function"}],"evm":{"bytecode":{"linkReferences":{},"object":"608060405234801561001057600080fd5b50604051610a0e380380610a0e83398101604081905261002f916100fb565b6001600160a01b03811661005657604051630ef7a63d60e41b815260040160405180910390fd5b600080546001600160a01b0319166001600160a01b038316908117825580825260016020818152604093849020805460ff191683179055925190815290917f982a99348fec642a92e16f71c230eb7bf497069ea91d0d23ca773ea0218ab05a910160405180910390a26040516001600160a01b038216906000907f8be0079c531659141344cd1fd0a4f28419497f9722a3daafe3b4186f6b6457e0908290a35061012b565b60006020828403121561010d57600080fd5b81516001600160a01b038116811461012457600080fd5b9392505050565b6108d48061013a6000396000f3fe608060405234801561001057600080fd5b50600436106100935760003560e01c80639fdbf9ea116100665780639fdbf9ea1461012d578063a779e1c714610140578063abec8f8d14610155578063e22b174a14610168578063f2fde38b1461017b57600080fd5b80630be2e19214610098578063312a6eac146100af578063759dda22146100cf5780638da5cb5b14610102575b600080fd5b6003545b6040519081526020015b60405180910390f35b6100c26100bd3660046106b0565b61018e565b6040516100a69190610701565b6100f26100dd366004610789565b60016020526000908152604090205460ff1681565b60405190151581526020016100a6565b600054610115906001600160a01b031681565b6040516001600160a01b0390911681526020016100a6565b6100f261013b3660046107ab565b6102c5565b61015361014e3660046107cd565b610309565b005b61009c6101633660046106b0565b6103ba565b610153610176366004610809565b6103e1565b610153610189366004610789565b61060e565b6040805161010081018252600080825260208201819052918101829052606081018290526080810182905260a0810182905260c0810182905260e0810191909152600082815260026020526040902060060154600160a01b900460ff166102105760405163a236b03560e01b8152600481018390526024015b60405180910390fd5b60026000838152602001908152602001600020604051806101000160405290816000820154815260200160018201548152602001600282015481526020016003820160009054906101000a900460ff166003811115610271576102716106c9565b6003811115610282576102826106c9565b815260048201546020820152600582015460408201526006909101546001600160a01b0381166060830152600160a01b900460ff16151560809091015292915050565b600082815260026020526040812060060154600160a01b900460ff166102ed57506000610303565b5060008281526002602052604090206004015481145b92915050565b6000546001600160a01b03163314610334576040516330cd747160e01b815260040160405180910390fd5b6001600160a01b03821661035b57604051630ef7a63d60e41b815260040160405180910390fd5b6001600160a01b038216600081815260016020908152604091829020805460ff191685151590811790915591519182527f982a99348fec642a92e16f71c230eb7bf497069ea91d0d23ca773ea0218ab05a910160405180910390a25050565b6000600382815481106103cf576103cf610856565b90600052602060002001549050919050565b3360009081526001602052604090205460ff166104105760405162a4abd160e31b815260040160405180910390fd5b84158061041b575083155b80610424575082155b8061042d575080155b1561044b57604051630ef7a63d60e41b815260040160405180910390fd5b600085815260026020526040902060060154600160a01b900460ff1615610488576040516313753a3b60e11b815260048101869052602401610207565b6040518061010001604052808681526020018581526020018481526020018360038111156104b8576104b86106c9565b8152602001828152602001428152602001336001600160a01b03168152602001600115158152506002600087815260200190815260200160002060008201518160000155602082015181600101556040820151816002015560608201518160030160006101000a81548160ff0219169083600381111561053a5761053a6106c9565b02179055506080820151600482015560a0820151600582015560c08201516006909101805460e0909301511515600160a01b026001600160a81b03199093166001600160a01b0390921691909117919091179055600380546001810182556000919091527fc2575a0e9e593c00f959f8c92f12db2869c3395a3b0502d05e2516446f71f85b018590556040518390859087907fd4c96d21f4734beff4a6dd05c7a7fc92848fb0e233db49894e1082d0aaf9be5e906105ff90879087904290339061086c565b60405180910390a45050505050565b6000546001600160a01b03163314610639576040516330cd747160e01b815260040160405180910390fd5b6001600160a01b03811661066057604051630ef7a63d60e41b815260040160405180910390fd5b600080546001600160a01b038381166001600160a01b0319831681178455604051919092169283917f8be0079c531659141344cd1fd0a4f28419497f9722a3daafe3b4186f6b6457e09190a35050565b6000602082840312156106c257600080fd5b5035919050565b634e487b7160e01b600052602160045260246000fd5b600481106106fd57634e487b7160e01b600052602160045260246000fd5b9052565b600061010082019050825182526020830151602083015260408301516040830152606083015161073460608401826106df565b506080830151608083015260a083015160a083015260018060a01b0360c08401511660c083015260e0830151151560e083015292915050565b80356001600160a01b038116811461078457600080fd5b919050565b60006020828403121561079b57600080fd5b6107a48261076d565b9392505050565b600080604083850312156107be57600080fd5b50508035926020909101359150565b600080604083850312156107e057600080fd5b6107e98361076d565b9150602083013580151581146107fe57600080fd5b809150509250929050565b600080600080600060a0868803121561082157600080fd5b85359450602086013593506040860135925060608601356004811061084557600080fd5b949793965091946080013592915050565b634e487b7160e01b600052603260045260246000fd5b6080810161087a82876106df565b602082019490945260408101929092526001600160a01b031660609091015291905056fea264697066735822122051bcb722f59f3f1ec72f5579d4bada0ea15ba8f939961e4eaf78b8e250d8d31a64736f6c634300081c0033","opcodes":"PUSH1 0x80 PUSH1 0x40 MSTORE CALLVALUE DUP1 ISZERO PUSH2 0x10 JUMPI PUSH1 0x0 DUP1 REVERT JUMPDEST POP PUSH1 0x40 MLOAD PUSH2 0xA0E CODESIZE SUB DUP1 PUSH2 0xA0E DUP4 CODECOPY DUP2 ADD PUSH1 0x40 DUP2 SWAP1 MSTORE PUSH2 0x2F SWAP2 PUSH2 0xFB JUMP JUMPDEST PUSH1 0x1 PUSH1 0x1 PUSH1 0xA0 SHL SUB DUP2 AND PUSH2 0x56 JUMPI PUSH1 0x40 MLOAD PUSH4 0xEF7A63D PUSH1 0xE4 SHL DUP2 MSTORE PUSH1 0x4 ADD PUSH1 0x40 MLOAD DUP1 SWAP2 SUB SWAP1 REVERT JUMPDEST PUSH1 0x0 DUP1 SLOAD PUSH1 0x1 PUSH1 0x1 PUSH1 0xA0 SHL SUB NOT AND PUSH1 0x1 PUSH1 0x1 PUSH1 0xA0 SHL SUB DUP4 AND SWAP1 DUP2 OR DUP3 SSTORE DUP1 DUP3 MSTORE PUSH1 0x1 PUSH1 0x20 DUP2 DUP2 MSTORE PUSH1 0x40 SWAP4 DUP5 SWAP1 KECCAK256 DUP1 SLOAD PUSH1 0xFF NOT AND DUP4 OR SWAP1 SSTORE SWAP3 MLOAD SWAP1 DUP2 MSTORE SWAP1 SWAP2 PUSH32 0x982A99348FEC642A92E16F71C230EB7BF497069EA91D0D23CA773EA0218AB05A SWAP2 ADD PUSH1 0x40 MLOAD DUP1 SWAP2 SUB SWAP1 LOG2 PUSH1 0x40 MLOAD PUSH1 0x1 PUSH1 0x1 PUSH1 0xA0 SHL SUB DUP3 AND SWAP1 PUSH1 0x0 SWAP1 PUSH32 0x8BE0079C531659141344CD1FD0A4F28419497F9722A3DAAFE3B4186F6B6457E0 SWAP1 DUP3 SWAP1 LOG3 POP PUSH2 0x12B JUMP JUMPDEST PUSH1 0x0 PUSH1 0x20 DUP3 DUP5 SUB SLT ISZERO PUSH2 0x10D JUMPI PUSH1 0x0 DUP1 REVERT JUMPDEST DUP2 MLOAD PUSH1 0x1 PUSH1 0x1 PUSH1 0xA0 SHL SUB DUP2 AND DUP2 EQ PUSH2 0x124 JUMPI PUSH1 0x0 DUP1 REVERT JUMPDEST SWAP4 SWAP3 POP POP POP JUMP JUMPDEST PUSH2 0x8D4 DUP1 PUSH2 0x13A PUSH1 0x0 CODECOPY PUSH1 0x0 RETURN INVALID PUSH1 0x80 PUSH1 0x40 MSTORE CALLVALUE DUP1 ISZERO PUSH2 0x10 JUMPI PUSH1 0x0 DUP1 REVERT JUMPDEST POP PUSH1 0x4 CALLDATASIZE LT PUSH2 0x93 JUMPI PUSH1 0x0 CALLDATALOAD PUSH1 0xE0 SHR DUP1 PUSH4 0x9FDBF9EA GT PUSH2 0x66 JUMPI DUP1 PUSH4 0x9FDBF9EA EQ PUSH2 0x12D JUMPI DUP1 PUSH4 0xA779E1C7 EQ PUSH2 0x140 JUMPI DUP1 PUSH4 0xABEC8F8D EQ PUSH2 0x155 JUMPI DUP1 PUSH4 0xE22B174A EQ PUSH2 0x168 JUMPI DUP1 PUSH4 0xF2FDE38B EQ PUSH2 0x17B JUMPI PUSH1 0x0 DUP1 REVERT JUMPDEST DUP1 PUSH4 0xBE2E192 EQ PUSH2 0x98 JUMPI DUP1 PUSH4 0x312A6EAC EQ PUSH2 0xAF JUMPI DUP1 PUSH4 0x759DDA22 EQ PUSH2 0xCF JUMPI DUP1 PUSH4 0x8DA5CB5B EQ PUSH2 0x102 JUMPI JUMPDEST PUSH1 0x0 DUP1 REVERT JUMPDEST PUSH1 0x3 SLOAD JUMPDEST PUSH1 0x40 MLOAD SWAP1 DUP2 MSTORE PUSH1 0x20 ADD JUMPDEST PUSH1 0x40 MLOAD DUP1 SWAP2 SUB SWAP1 RETURN JUMPDEST PUSH2 0xC2 PUSH2 0xBD CALLDATASIZE PUSH1 0x4 PUSH2 0x6B0 JUMP JUMPDEST PUSH2 0x18E JUMP JUMPDEST PUSH1 0x40 MLOAD PUSH2 0xA6 SWAP2 SWAP1 PUSH2 0x701 JUMP JUMPDEST PUSH2 0xF2 PUSH2 0xDD CALLDATASIZE PUSH1 0x4 PUSH2 0x789 JUMP JUMPDEST PUSH1 0x1 PUSH1 0x20 MSTORE PUSH1 0x0 SWAP1 DUP2 MSTORE PUSH1 0x40 SWAP1 KECCAK256 SLOAD PUSH1 0xFF AND DUP2 JUMP JUMPDEST PUSH1 0x40 MLOAD SWAP1 ISZERO ISZERO DUP2 MSTORE PUSH1 0x20 ADD PUSH2 0xA6 JUMP JUMPDEST PUSH1 0x0 SLOAD PUSH2 0x115 SWAP1 PUSH1 0x1 PUSH1 0x1 PUSH1 0xA0 SHL SUB AND DUP2 JUMP JUMPDEST PUSH1 0x40 MLOAD PUSH1 0x1 PUSH1 0x1 PUSH1 0xA0 SHL SUB SWAP1 SWAP2 AND DUP2 MSTORE PUSH1 0x20 ADD PUSH2 0xA6 JUMP JUMPDEST PUSH2 0xF2 PUSH2 0x13B CALLDATASIZE PUSH1 0x4 PUSH2 0x7AB JUMP JUMPDEST PUSH2 0x2C5 JUMP JUMPDEST PUSH2 0x153 PUSH2 0x14E CALLDATASIZE PUSH1 0x4 PUSH2 0x7CD JUMP JUMPDEST PUSH2 0x309 JUMP JUMPDEST STOP JUMPDEST PUSH2 0x9C PUSH2 0x163 CALLDATASIZE PUSH1 0x4 PUSH2 0x6B0 JUMP JUMPDEST PUSH2 0x3BA JUMP JUMPDEST PUSH2 0x153 PUSH2 0x176 CALLDATASIZE PUSH1 0x4 PUSH2 0x809 JUMP JUMPDEST PUSH2 0x3E1 JUMP JUMPDEST PUSH2 0x153 PUSH2 0x189 CALLDATASIZE PUSH1 0x4 PUSH2 0x789 JUMP JUMPDEST PUSH2 0x60E JUMP JUMPDEST PUSH1 0x40 DUP1 MLOAD PUSH2 0x100 DUP2 ADD DUP3 MSTORE PUSH1 0x0 DUP1 DUP3 MSTORE PUSH1 0x20 DUP3 ADD DUP2 SWAP1 MSTORE SWAP2 DUP2 ADD DUP3 SWAP1 MSTORE PUSH1 0x60 DUP2 ADD DUP3 SWAP1 MSTORE PUSH1 0x80 DUP2 ADD DUP3 SWAP1 MSTORE PUSH1 0xA0 DUP2 ADD DUP3 SWAP1 MSTORE PUSH1 0xC0 DUP2 ADD DUP3 SWAP1 MSTORE PUSH1 0xE0 DUP2 ADD SWAP2 SWAP1 SWAP2 MSTORE PUSH1 0x0 DUP3 DUP2 MSTORE PUSH1 0x2 PUSH1 0x20 MSTORE PUSH1 0x40 SWAP1 KECCAK256 PUSH1 0x6 ADD SLOAD PUSH1 0x1 PUSH1 0xA0 SHL SWAP1 DIV PUSH1 0xFF AND PUSH2 0x210 JUMPI PUSH1 0x40 MLOAD PUSH4 0xA236B035 PUSH1 0xE0 SHL DUP2 MSTORE PUSH1 0x4 DUP2 ADD DUP4 SWAP1 MSTORE PUSH1 0x24 ADD JUMPDEST PUSH1 0x40 MLOAD DUP1 SWAP2 SUB SWAP1 REVERT JUMPDEST PUSH1 0x2 PUSH1 0x0 DUP4 DUP2 MSTORE PUSH1 0x20 ADD SWAP1 DUP2 MSTORE PUSH1 0x20 ADD PUSH1 0x0 KECCAK256 PUSH1 0x40 MLOAD DUP1 PUSH2 0x100 ADD PUSH1 0x40 MSTORE SWAP1 DUP2 PUSH1 0x0 DUP3 ADD SLOAD DUP2 MSTORE PUSH1 0x20 ADD PUSH1 0x1 DUP3 ADD SLOAD DUP2 MSTORE PUSH1 0x20 ADD PUSH1 0x2 DUP3 ADD SLOAD DUP2 MSTORE PUSH1 0x20 ADD PUSH1 0x3 DUP3 ADD PUSH1 0x0 SWAP1 SLOAD SWAP1 PUSH2 0x100 EXP SWAP1 DIV PUSH1 0xFF AND PUSH1 0x3 DUP2 GT ISZERO PUSH2 0x271 JUMPI PUSH2 0x271 PUSH2 0x6C9 JUMP JUMPDEST PUSH1 0x3 DUP2 GT ISZERO PUSH2 0x282 JUMPI PUSH2 0x282 PUSH2 0x6C9 JUMP JUMPDEST DUP2 MSTORE PUSH1 0x4 DUP3 ADD SLOAD PUSH1 0x20 DUP3 ADD MSTORE PUSH1 0x5 DUP3 ADD SLOAD PUSH1 0x40 DUP3 ADD MSTORE PUSH1 0x6 SWAP1 SWAP2 ADD SLOAD PUSH1 0x1 PUSH1 0x1 PUSH1 0xA0 SHL SUB DUP2 AND PUSH1 0x60 DUP4 ADD MSTORE PUSH1 0x1 PUSH1 0xA0 SHL SWAP1 DIV PUSH1 0xFF AND ISZERO ISZERO PUSH1 0x80 SWAP1 SWAP2 ADD MSTORE SWAP3 SWAP2 POP POP JUMP JUMPDEST PUSH1 0x0 DUP3 DUP2 MSTORE PUSH1 0x2 PUSH1 0x20 MSTORE PUSH1 0x40 DUP2 KECCAK256 PUSH1 0x6 ADD SLOAD PUSH1 0x1 PUSH1 0xA0 SHL SWAP1 DIV PUSH1 0xFF AND PUSH2 0x2ED JUMPI POP PUSH1 0x0 PUSH2 0x303 JUMP JUMPDEST POP PUSH1 0x0 DUP3 DUP2 MSTORE PUSH1 0x2 PUSH1 0x20 MSTORE PUSH1 0x40 SWAP1 KECCAK256 PUSH1 0x4 ADD SLOAD DUP2 EQ JUMPDEST SWAP3 SWAP2 POP POP JUMP JUMPDEST PUSH1 0x0 SLOAD PUSH1 0x1 PUSH1 0x1 PUSH1 0xA0 SHL SUB AND CALLER EQ PUSH2 0x334 JUMPI PUSH1 0x40 MLOAD PUSH4 0x30CD7471 PUSH1 0xE0 SHL DUP2 MSTORE PUSH1 0x4 ADD PUSH1 0x40 MLOAD DUP1 SWAP2 SUB SWAP1 REVERT JUMPDEST PUSH1 0x1 PUSH1 0x1 PUSH1 0xA0 SHL SUB DUP3 AND PUSH2 0x35B JUMPI PUSH1 0x40 MLOAD PUSH4 0xEF7A63D PUSH1 0xE4 SHL DUP2 MSTORE PUSH1 0x4 ADD PUSH1 0x40 MLOAD DUP1 SWAP2 SUB SWAP1 REVERT JUMPDEST PUSH1 0x1 PUSH1 0x1 PUSH1 0xA0 SHL SUB DUP3 AND PUSH1 0x0 DUP2 DUP2 MSTORE PUSH1 0x1 PUSH1 0x20 SWAP1 DUP2 MSTORE PUSH1 0x40 SWAP2 DUP3 SWAP1 KECCAK256 DUP1 SLOAD PUSH1 0xFF NOT AND DUP6 ISZERO ISZERO SWAP1 DUP2 OR SWAP1 SWAP2 SSTORE SWAP2 MLOAD SWAP2 DUP3 MSTORE PUSH32 0x982A99348FEC642A92E16F71C230EB7BF497069EA91D0D23CA773EA0218AB05A SWAP2 ADD PUSH1 0x40 MLOAD DUP1 SWAP2 SUB SWAP1 LOG2 POP POP JUMP JUMPDEST PUSH1 0x0 PUSH1 0x3 DUP3 DUP2 SLOAD DUP2 LT PUSH2 0x3CF JUMPI PUSH2 0x3CF PUSH2 0x856 JUMP JUMPDEST SWAP1 PUSH1 0x0 MSTORE PUSH1 0x20 PUSH1 0x0 KECCAK256 ADD SLOAD SWAP1 POP SWAP2 SWAP1 POP JUMP JUMPDEST CALLER PUSH1 0x0 SWAP1 DUP2 MSTORE PUSH1 0x1 PUSH1 0x20 MSTORE PUSH1 0x40 SWAP1 KECCAK256 SLOAD PUSH1 0xFF AND PUSH2 0x410 JUMPI PUSH1 0x40 MLOAD PUSH3 0xA4ABD1 PUSH1 0xE3 SHL DUP2 MSTORE PUSH1 0x4 ADD PUSH1 0x40 MLOAD DUP1 SWAP2 SUB SWAP1 REVERT JUMPDEST DUP5 ISZERO DUP1 PUSH2 0x41B JUMPI POP DUP4 ISZERO JUMPDEST DUP1 PUSH2 0x424 JUMPI POP DUP3 ISZERO JUMPDEST DUP1 PUSH2 0x42D JUMPI POP DUP1 ISZERO JUMPDEST ISZERO PUSH2 0x44B JUMPI PUSH1 0x40 MLOAD PUSH4 0xEF7A63D PUSH1 0xE4 SHL DUP2 MSTORE PUSH1 0x4 ADD PUSH1 0x40 MLOAD DUP1 SWAP2 SUB SWAP1 REVERT JUMPDEST PUSH1 0x0 DUP6 DUP2 MSTORE PUSH1 0x2 PUSH1 0x20 MSTORE PUSH1 0x40 SWAP1 KECCAK256 PUSH1 0x6 ADD SLOAD PUSH1 0x1 PUSH1 0xA0 SHL SWAP1 DIV PUSH1 0xFF AND ISZERO PUSH2 0x488 JUMPI PUSH1 0x40 MLOAD PUSH4 0x13753A3B PUSH1 0xE1 SHL DUP2 MSTORE PUSH1 0x4 DUP2 ADD DUP7 SWAP1 MSTORE PUSH1 0x24 ADD PUSH2 0x207 JUMP JUMPDEST PUSH1 0x40 MLOAD DUP1 PUSH2 0x100 ADD PUSH1 0x40 MSTORE DUP1 DUP7 DUP2 MSTORE PUSH1 0x20 ADD DUP6 DUP2 MSTORE PUSH1 0x20 ADD DUP5 DUP2 MSTORE PUSH1 0x20 ADD DUP4 PUSH1 0x3 DUP2 GT ISZERO PUSH2 0x4B8 JUMPI PUSH2 0x4B8 PUSH2 0x6C9 JUMP JUMPDEST DUP2 MSTORE PUSH1 0x20 ADD DUP3 DUP2 MSTORE PUSH1 0x20 ADD TIMESTAMP DUP2 MSTORE PUSH1 0x20 ADD CALLER PUSH1 0x1 PUSH1 0x1 PUSH1 0xA0 SHL SUB AND DUP2 MSTORE PUSH1 0x20 ADD PUSH1 0x1 ISZERO ISZERO DUP2 MSTORE POP PUSH1 0x2 PUSH1 0x0 DUP8 DUP2 MSTORE PUSH1 0x20 ADD SWAP1 DUP2 MSTORE PUSH1 0x20 ADD PUSH1 0x0 KECCAK256 PUSH1 0x0 DUP3 ADD MLOAD DUP2 PUSH1 0x0 ADD SSTORE PUSH1 0x20 DUP3 ADD MLOAD DUP2 PUSH1 0x1 ADD SSTORE PUSH1 0x40 DUP3 ADD MLOAD DUP2 PUSH1 0x2 ADD SSTORE PUSH1 0x60 DUP3 ADD MLOAD DUP2 PUSH1 0x3 ADD PUSH1 0x0 PUSH2 0x100 EXP DUP2 SLOAD DUP2 PUSH1 0xFF MUL NOT AND SWAP1 DUP4 PUSH1 0x3 DUP2 GT ISZERO PUSH2 0x53A JUMPI PUSH2 0x53A PUSH2 0x6C9 JUMP JUMPDEST MUL OR SWAP1 SSTORE POP PUSH1 0x80 DUP3 ADD MLOAD PUSH1 0x4 DUP3 ADD SSTORE PUSH1 0xA0 DUP3 ADD MLOAD PUSH1 0x5 DUP3 ADD SSTORE PUSH1 0xC0 DUP3 ADD MLOAD PUSH1 0x6 SWAP1 SWAP2 ADD DUP1 SLOAD PUSH1 0xE0 SWAP1 SWAP4 ADD MLOAD ISZERO ISZERO PUSH1 0x1 PUSH1 0xA0 SHL MUL PUSH1 0x1 PUSH1 0x1 PUSH1 0xA8 SHL SUB NOT SWAP1 SWAP4 AND PUSH1 0x1 PUSH1 0x1 PUSH1 0xA0 SHL SUB SWAP1 SWAP3 AND SWAP2 SWAP1 SWAP2 OR SWAP2 SWAP1 SWAP2 OR SWAP1 SSTORE PUSH1 0x3 DUP1 SLOAD PUSH1 0x1 DUP2 ADD DUP3 SSTORE PUSH1 0x0 SWAP2 SWAP1 SWAP2 MSTORE PUSH32 0xC2575A0E9E593C00F959F8C92F12DB2869C3395A3B0502D05E2516446F71F85B ADD DUP6 SWAP1 SSTORE PUSH1 0x40 MLOAD DUP4 SWAP1 DUP6 SWAP1 DUP8 SWAP1 PUSH32 0xD4C96D21F4734BEFF4A6DD05C7A7FC92848FB0E233DB49894E1082D0AAF9BE5E SWAP1 PUSH2 0x5FF SWAP1 DUP8 SWAP1 DUP8 SWAP1 TIMESTAMP SWAP1 CALLER SWAP1 PUSH2 0x86C JUMP JUMPDEST PUSH1 0x40 MLOAD DUP1 SWAP2 SUB SWAP1 LOG4 POP POP POP POP POP JUMP JUMPDEST PUSH1 0x0 SLOAD PUSH1 0x1 PUSH1 0x1 PUSH1 0xA0 SHL SUB AND CALLER EQ PUSH2 0x639 JUMPI PUSH1 0x40 MLOAD PUSH4 0x30CD7471 PUSH1 0xE0 SHL DUP2 MSTORE PUSH1 0x4 ADD PUSH1 0x40 MLOAD DUP1 SWAP2 SUB SWAP1 REVERT JUMPDEST PUSH1 0x1 PUSH1 0x1 PUSH1 0xA0 SHL SUB DUP2 AND PUSH2 0x660 JUMPI PUSH1 0x40 MLOAD PUSH4 0xEF7A63D PUSH1 0xE4 SHL DUP2 MSTORE PUSH1 0x4 ADD PUSH1 0x40 MLOAD DUP1 SWAP2 SUB SWAP1 REVERT JUMPDEST PUSH1 0x0 DUP1 SLOAD PUSH1 0x1 PUSH1 0x1 PUSH1 0xA0 SHL SUB DUP4 DUP2 AND PUSH1 0x1 PUSH1 0x1 PUSH1 0xA0 SHL SUB NOT DUP4 AND DUP2 OR DUP5 SSTORE PUSH1 0x40 MLOAD SWAP2 SWAP1 SWAP3 AND SWAP3 DUP4 SWAP2 PUSH32 0x8BE0079C531659141344CD1FD0A4F28419497F9722A3DAAFE3B4186F6B6457E0 SWAP2 SWAP1 LOG3 POP POP JUMP JUMPDEST PUSH1 0x0 PUSH1 0x20 DUP3 DUP5 SUB SLT ISZERO PUSH2 0x6C2 JUMPI PUSH1 0x0 DUP1 REVERT JUMPDEST POP CALLDATALOAD SWAP2 SWAP1 POP JUMP JUMPDEST PUSH4 0x4E487B71 PUSH1 0xE0 SHL PUSH1 0x0 MSTORE PUSH1 0x21 PUSH1 0x4 MSTORE PUSH1 0x24 PUSH1 0x0 REVERT JUMPDEST PUSH1 0x4 DUP2 LT PUSH2 0x6FD JUMPI PUSH4 0x4E487B71 PUSH1 0xE0 SHL PUSH1 0x0 MSTORE PUSH1 0x21 PUSH1 0x4 MSTORE PUSH1 0x24 PUSH1 0x0 REVERT JUMPDEST SWAP1 MSTORE JUMP JUMPDEST PUSH1 0x0 PUSH2 0x100 DUP3 ADD SWAP1 POP DUP3 MLOAD DUP3 MSTORE PUSH1 0x20 DUP4 ADD MLOAD PUSH1 0x20 DUP4 ADD MSTORE PUSH1 0x40 DUP4 ADD MLOAD PUSH1 0x40 DUP4 ADD MSTORE PUSH1 0x60 DUP4 ADD MLOAD PUSH2 0x734 PUSH1 0x60 DUP5 ADD DUP3 PUSH2 0x6DF JUMP JUMPDEST POP PUSH1 0x80 DUP4 ADD MLOAD PUSH1 0x80 DUP4 ADD MSTORE PUSH1 0xA0 DUP4 ADD MLOAD PUSH1 0xA0 DUP4 ADD MSTORE PUSH1 0x1 DUP1 PUSH1 0xA0 SHL SUB PUSH1 0xC0 DUP5 ADD MLOAD AND PUSH1 0xC0 DUP4 ADD MSTORE PUSH1 0xE0 DUP4 ADD MLOAD ISZERO ISZERO PUSH1 0xE0 DUP4 ADD MSTORE SWAP3 SWAP2 POP POP JUMP JUMPDEST DUP1 CALLDATALOAD PUSH1 0x1 PUSH1 0x1 PUSH1 0xA0 SHL SUB DUP2 AND DUP2 EQ PUSH2 0x784 JUMPI PUSH1 0x0 DUP1 REVERT JUMPDEST SWAP2 SWAP1 POP JUMP JUMPDEST PUSH1 0x0 PUSH1 0x20 DUP3 DUP5 SUB SLT ISZERO PUSH2 0x79B JUMPI PUSH1 0x0 DUP1 REVERT JUMPDEST PUSH2 0x7A4 DUP3 PUSH2 0x76D JUMP JUMPDEST SWAP4 SWAP3 POP POP POP JUMP JUMPDEST PUSH1 0x0 DUP1 PUSH1 0x40 DUP4 DUP6 SUB SLT ISZERO PUSH2 0x7BE JUMPI PUSH1 0x0 DUP1 REVERT JUMPDEST POP POP DUP1 CALLDATALOAD SWAP3 PUSH1 0x20 SWAP1 SWAP2 ADD CALLDATALOAD SWAP2 POP JUMP JUMPDEST PUSH1 0x0 DUP1 PUSH1 0x40 DUP4 DUP6 SUB SLT ISZERO PUSH2 0x7E0 JUMPI PUSH1 0x0 DUP1 REVERT JUMPDEST PUSH2 0x7E9 DUP4 PUSH2 0x76D JUMP JUMPDEST SWAP2 POP PUSH1 0x20 DUP4 ADD CALLDATALOAD DUP1 ISZERO ISZERO DUP2 EQ PUSH2 0x7FE JUMPI PUSH1 0x0 DUP1 REVERT JUMPDEST DUP1 SWAP2 POP POP SWAP3 POP SWAP3 SWAP1 POP JUMP JUMPDEST PUSH1 0x0 DUP1 PUSH1 0x0 DUP1 PUSH1 0x0 PUSH1 0xA0 DUP7 DUP9 SUB SLT ISZERO PUSH2 0x821 JUMPI PUSH1 0x0 DUP1 REVERT JUMPDEST DUP6 CALLDATALOAD SWAP5 POP PUSH1 0x20 DUP7 ADD CALLDATALOAD SWAP4 POP PUSH1 0x40 DUP7 ADD CALLDATALOAD SWAP3 POP PUSH1 0x60 DUP7 ADD CALLDATALOAD PUSH1 0x4 DUP2 LT PUSH2 0x845 JUMPI PUSH1 0x0 DUP1 REVERT JUMPDEST SWAP5 SWAP8 SWAP4 SWAP7 POP SWAP2 SWAP5 PUSH1 0x80 ADD CALLDATALOAD SWAP3 SWAP2 POP POP JUMP JUMPDEST PUSH4 0x4E487B71 PUSH1 0xE0 SHL PUSH1 0x0 MSTORE PUSH1 0x32 PUSH1 0x4 MSTORE PUSH1 0x24 PUSH1 0x0 REVERT JUMPDEST PUSH1 0x80 DUP2 ADD PUSH2 0x87A DUP3 DUP8 PUSH2 0x6DF JUMP JUMPDEST PUSH1 0x20 DUP3 ADD SWAP5 SWAP1 SWAP5 MSTORE PUSH1 0x40 DUP2 ADD SWAP3 SWAP1 SWAP3 MSTORE PUSH1 0x1 PUSH1 0x1 PUSH1 0xA0 SHL SUB AND PUSH1 0x60 SWAP1 SWAP2 ADD MSTORE SWAP2 SWAP1 POP JUMP INVALID LOG2 PUSH5 0x6970667358 0x22 SLT KECCAK256 MLOAD 0xBC 0xB7 0x22 CREATE2 SWAP16 EXTCODEHASH 0x1E 0xC7 0x2F SSTORE PUSH26 0xD4BADA0EA15BA8F939961E4EAF78B8E250D8D31A64736F6C6343 STOP ADDMOD SHR STOP CALLER "},"methodIdentifiers":{"auditCount()":"0be2e192","backendWriters(address)":"759dda22","getAudit(bytes32)":"312a6eac","getAuditIdAt(uint256)":"abec8f8d","owner()":"8da5cb5b","recordAudit(bytes32,bytes32,bytes32,uint8,bytes32)":"e22b174a","setBackendWriter(address,bool)":"a779e1c7","transferOwnership(address)":"f2fde38b","verifyAudit(bytes32,bytes32)":"9fdbf9ea"}}}}}